{
  "contractName": "Sample",
  "abi": [
    {
      "constant": true,
      "inputs": [],
      "name": "pokes",
      "outputs": [
        {
          "name": "",
          "type": "uint256"
        }
      ],
      "payable": false,
      "stateMutability": "view",
      "type": "function",
      "signature": "0x8ac73305"
    },
    {
      "inputs": [],
      "payable": false,
      "stateMutability": "nonpayable",
      "type": "constructor",
      "signature": "constructor"
    },
    {
      "anonymous": false,
      "inputs": [
        {
          "indexed": false,
          "name": "",
          "type": "uint256"
        }
      ],
      "name": "Poked",
      "type": "event",
      "signature": "0xc2c24f29eda7b97be3182bcc7c0058a4e9f5ea6455e0f434ec01efecf0238802"
    },
    {
      "constant": false,
      "inputs": [],
      "name": "poke",
      "outputs": [],
      "payable": false,
      "stateMutability": "nonpayable",
      "type": "function",
      "signature": "0x18178358"
    },
    {
      "constant": true,
      "inputs": [],
      "name": "getPokes",
      "outputs": [
        {
          "name": "",
          "type": "uint256"
        }
      ],
      "payable": false,
      "stateMutability": "view",
      "type": "function",
      "signature": "0xa19e6fa7"
    }
  ],
  "bytecode": "0x608060405234801561001057600080fd5b5061014b806100206000396000f3fe608060405260043610610057576000357c0100000000000000000000000000000000000000000000000000000000900463ffffffff168063181783581461005c5780638ac7330514610073578063a19e6fa71461009e575b600080fd5b34801561006857600080fd5b506100716100c9565b005b34801561007f57600080fd5b50610088610110565b6040518082815260200191505060405180910390f35b3480156100aa57600080fd5b506100b3610116565b6040518082815260200191505060405180910390f35b6001600054016000819055507fc2c24f29eda7b97be3182bcc7c0058a4e9f5ea6455e0f434ec01efecf02388026000546040518082815260200191505060405180910390a1565b60005481565b6000805490509056fea165627a7a72305820216c327be341b6a0ccd01628ca2f90d82b7a2f5d8616249b7189eb5c53254ebd0029",
  "source": "pragma solidity ^0.5.0;\n\n/**\n * The Sample contract does this and that...\n */\ncontract Sample {\n    constructor() public {}\n\n    uint public pokes;\n\n    event Poked(uint);\n\n    function poke() public {\n        pokes = pokes + 1;\n        emit Poked(pokes);\n    }\n\n    function getPokes() public view returns(uint) {\n        return pokes;\n    }\n}\n",
  "sourcePath": "/Users/billy/sol/eth-dev-tools/contracts/Sample.sol",
  "compiler": {
    "name": "solc",
    "version": "0.5.0+commit.1d4f565a.Emscripten.clang"
  },
  "schemaVersion": "3.0.2",
  "updatedAt": "2019-02-16T00:28:37.985Z",
  "devdoc": {
    "methods": {}
  },
  "userdoc": {
    "methods": {},
    "notice": "The Sample contract does this and that..."
  }
}